{
  "address": "0x489CFa5FeE93a96782E95558fCFc19486605455D",
  "abi": [
    {
      "inputs": [],
      "name": "ReentrancyGuardReentrantCall",
      "type": "error"
    },
    {
      "anonymous": false,
      "inputs": [
        {
          "indexed": true,
          "internalType": "address",
          "name": "user",
          "type": "address"
        },
        {
          "indexed": false,
          "internalType": "uint256",
          "name": "amount",
          "type": "uint256"
        }
      ],
      "name": "Deposit",
      "type": "event"
    },
    {
      "anonymous": false,
      "inputs": [
        {
          "indexed": true,
          "internalType": "address",
          "name": "user",
          "type": "address"
        },
        {
          "indexed": false,
          "internalType": "uint256",
          "name": "amount",
          "type": "uint256"
        }
      ],
      "name": "Withdraw",
      "type": "event"
    },
    {
      "inputs": [
        {
          "internalType": "address",
          "name": "",
          "type": "address"
        }
      ],
      "name": "balances",
      "outputs": [
        {
          "internalType": "uint256",
          "name": "",
          "type": "uint256"
        }
      ],
      "stateMutability": "view",
      "type": "function"
    },
    {
      "inputs": [],
      "name": "deposit",
      "outputs": [],
      "stateMutability": "payable",
      "type": "function"
    },
    {
      "inputs": [],
      "name": "getBankBalance",
      "outputs": [
        {
          "internalType": "uint256",
          "name": "",
          "type": "uint256"
        }
      ],
      "stateMutability": "view",
      "type": "function"
    },
    {
      "inputs": [],
      "name": "withdraw",
      "outputs": [],
      "stateMutability": "nonpayable",
      "type": "function"
    }
  ],
  "transactionHash": "0xf42c15c7d39e5d89d9e8e3cc8ec975efda32d53c3686827237a6b07968452a4d",
  "args": [],
  "numDeployments": 1,
  "solcInputHash": "7bba4fb86cecf476665084fdb6d038b2",
  "bytecode": "0x6080604052348015600f57600080fd5b506001600055610359806100246000396000f3fe60806040526004361061003f5760003560e01c806327e235e3146100445780633ccfd60b146100835780637b83b50b1461009a578063d0e30db0146100ad575b600080fd5b34801561005057600080fd5b5061007161005f3660046102cc565b60016020526000908152604090205481565b60405190815260200160405180910390f35b34801561008f57600080fd5b506100986100b5565b005b3480156100a657600080fd5b5047610071565b6100986101f7565b6100bd6102a2565b33600090815260016020526040902054806101185760405162461bcd60e51b81526020600482015260166024820152754e6f2062616c616e636520746f20776974686472617760501b60448201526064015b60405180910390fd5b336000818152600160205260408082208290555190919083908381818185875af1925050503d8060008114610169576040519150601f19603f3d011682016040523d82523d6000602084013e61016e565b606091505b50509050806101b45760405162461bcd60e51b815260206004820152601260248201527108cc2d2d8cac840e8de40e6cadcc8408aa8960731b604482015260640161010f565b60405182815233907f884edad9ce6fa2440d8a54cc123490eb96d2768479d49ff9c7366125a94243649060200160405180910390a250506101f56001600055565b565b600034116102475760405162461bcd60e51b815260206004820152601c60248201527f4d757374206465706f736974206d6f7265207468616e20302045544800000000604482015260640161010f565b33600090815260016020526040812080543492906102669084906102fc565b909155505060405134815233907fe1fffcc4923d04b559f4d29a8bfc6cda04eb5b0d3c460751c2402c5c5cc9109c9060200160405180910390a2565b6002600054036102c557604051633ee5aeb560e01b815260040160405180910390fd5b6002600055565b6000602082840312156102de57600080fd5b81356001600160a01b03811681146102f557600080fd5b9392505050565b8082018082111561031d57634e487b7160e01b600052601160045260246000fd5b9291505056fea26469706673582212202c65b097d1846fe00a3bf58c632aeb0da7322d13c5a30a9f083d98d50d15236c64736f6c634300081e0033",
  "devdoc": {
    "details": "リエントランシー攻撃対策済みの安全な銀行コントラクト",
    "errors": {
      "ReentrancyGuardReentrantCall()": [
        {
          "details": "Unauthorized reentrant call."
        }
      ]
    },
    "kind": "dev",
    "methods": {},
    "title": "TandenBank",
    "version": 1
  },
  "userdoc": {
    "kind": "user",
    "methods": {
      "deposit()": {
        "notice": "ETHを預ける関数"
      },
      "getBankBalance()": {
        "notice": "コントラクトが持っている総ETH量を確認する関数"
      },
      "withdraw()": {
        "notice": "預けたETHを全額引き出す関数 🛡️ nonReentrant修飾子をつけて再入攻撃をブロック！"
      }
    },
    "version": 1
  },
  "storageLayout": {
    "storage": [
      {
        "astId": 10,
        "contract": "contracts/TandenBank.sol:TandenBank",
        "label": "_status",
        "offset": 0,
        "slot": "0",
        "type": "t_uint256"
      },
      {
        "astId": 78,
        "contract": "contracts/TandenBank.sol:TandenBank",
        "label": "balances",
        "offset": 0,
        "slot": "1",
        "type": "t_mapping(t_address,t_uint256)"
      }
    ],
    "types": {
      "t_address": {
        "encoding": "inplace",
        "label": "address",
        "numberOfBytes": "20"
      },
      "t_mapping(t_address,t_uint256)": {
        "encoding": "mapping",
        "key": "t_address",
        "label": "mapping(address => uint256)",
        "numberOfBytes": "32",
        "value": "t_uint256"
      },
      "t_uint256": {
        "encoding": "inplace",
        "label": "uint256",
        "numberOfBytes": "32"
      }
    }
  }
}